{
  "address": "0x43D51317f1e9FAa65527F9A23CFD2a6973340721",
  "abi": [
    {
      "inputs": [
        {
          "internalType": "contract IVotes",
          "name": "_token",
          "type": "address"
        },
        {
          "internalType": "contract TimelockController",
          "name": "_timelock",
          "type": "address"
        }
      ],
      "stateMutability": "nonpayable",
      "type": "constructor"
    },
    {
      "inputs": [],
      "name": "Empty",
      "type": "error"
    },
    {
      "anonymous": false,
      "inputs": [
        {
          "indexed": false,
          "internalType": "uint256",
          "name": "proposalId",
          "type": "uint256"
        }
      ],
      "name": "ProposalCanceled",
      "type": "event"
    },
    {
      "anonymous": false,
      "inputs": [
        {
          "indexed": false,
          "internalType": "uint256",
          "name": "proposalId",
          "type": "uint256"
        },
        {
          "indexed": false,
          "internalType": "address",
          "name": "proposer",
          "type": "address"
        },
        {
          "indexed": false,
          "internalType": "address[]",
          "name": "targets",
          "type": "address[]"
        },
        {
          "indexed": false,
          "internalType": "uint256[]",
          "name": "values",
          "type": "uint256[]"
        },
        {
          "indexed": false,
          "internalType": "string[]",
          "name": "signatures",
          "type": "string[]"
        },
        {
          "indexed": false,
          "internalType": "bytes[]",
          "name": "calldatas",
          "type": "bytes[]"
        },
        {
          "indexed": false,
          "internalType": "uint256",
          "name": "startBlock",
          "type": "uint256"
        },
        {
          "indexed": false,
          "internalType": "uint256",
          "name": "endBlock",
          "type": "uint256"
        },
        {
          "indexed": false,
          "internalType": "string",
          "name": "description",
          "type": "string"
        }
      ],
      "name": "ProposalCreated",
      "type": "event"
    },
    {
      "anonymous": false,
      "inputs": [
        {
          "indexed": false,
          "internalType": "uint256",
          "name": "proposalId",
          "type": "uint256"
        }
      ],
      "name": "ProposalExecuted",
      "type": "event"
    },
    {
      "anonymous": false,
      "inputs": [
        {
          "indexed": false,
          "internalType": "uint256",
          "name": "proposalId",
          "type": "uint256"
        },
        {
          "indexed": false,
          "internalType": "uint256",
          "name": "eta",
          "type": "uint256"
        }
      ],
      "name": "ProposalQueued",
      "type": "event"
    },
    {
      "anonymous": false,
      "inputs": [
        {
          "indexed": false,
          "internalType": "uint256",
          "name": "oldProposalThreshold",
          "type": "uint256"
        },
        {
          "indexed": false,
          "internalType": "uint256",
          "name": "newProposalThreshold",
          "type": "uint256"
        }
      ],
      "name": "ProposalThresholdSet",
      "type": "event"
    },
    {
      "anonymous": false,
      "inputs": [
        {
          "indexed": false,
          "internalType": "uint256",
          "name": "oldQuorumNumerator",
          "type": "uint256"
        },
        {
          "indexed": false,
          "internalType": "uint256",
          "name": "newQuorumNumerator",
          "type": "uint256"
        }
      ],
      "name": "QuorumNumeratorUpdated",
      "type": "event"
    },
    {
      "anonymous": false,
      "inputs": [
        {
          "indexed": false,
          "internalType": "address",
          "name": "oldTimelock",
          "type": "address"
        },
        {
          "indexed": false,
          "internalType": "address",
          "name": "newTimelock",
          "type": "address"
        }
      ],
      "name": "TimelockChange",
      "type": "event"
    },
    {
      "anonymous": false,
      "inputs": [
        {
          "indexed": true,
          "internalType": "address",
          "name": "voter",
          "type": "address"
        },
        {
          "indexed": false,
          "internalType": "uint256",
          "name": "proposalId",
          "type": "uint256"
        },
        {
          "indexed": false,
          "internalType": "uint8",
          "name": "support",
          "type": "uint8"
        },
        {
          "indexed": false,
          "internalType": "uint256",
          "name": "weight",
          "type": "uint256"
        },
        {
          "indexed": false,
          "internalType": "string",
          "name": "reason",
          "type": "string"
        }
      ],
      "name": "VoteCast",
      "type": "event"
    },
    {
      "anonymous": false,
      "inputs": [
        {
          "indexed": true,
          "internalType": "address",
          "name": "voter",
          "type": "address"
        },
        {
          "indexed": false,
          "internalType": "uint256",
          "name": "proposalId",
          "type": "uint256"
        },
        {
          "indexed": false,
          "internalType": "uint8",
          "name": "support",
          "type": "uint8"
        },
        {
          "indexed": false,
          "internalType": "uint256",
          "name": "weight",
          "type": "uint256"
        },
        {
          "indexed": false,
          "internalType": "string",
          "name": "reason",
          "type": "string"
        },
        {
          "indexed": false,
          "internalType": "bytes",
          "name": "params",
          "type": "bytes"
        }
      ],
      "name": "VoteCastWithParams",
      "type": "event"
    },
    {
      "anonymous": false,
      "inputs": [
        {
          "indexed": false,
          "internalType": "uint256",
          "name": "oldVotingDelay",
          "type": "uint256"
        },
        {
          "indexed": false,
          "internalType": "uint256",
          "name": "newVotingDelay",
          "type": "uint256"
        }
      ],
      "name": "VotingDelaySet",
      "type": "event"
    },
    {
      "anonymous": false,
      "inputs": [
        {
          "indexed": false,
          "internalType": "uint256",
          "name": "oldVotingPeriod",
          "type": "uint256"
        },
        {
          "indexed": false,
          "internalType": "uint256",
          "name": "newVotingPeriod",
          "type": "uint256"
        }
      ],
      "name": "VotingPeriodSet",
      "type": "event"
    },
    {
      "inputs": [],
      "name": "BALLOT_TYPEHASH",
      "outputs": [
        {
          "internalType": "bytes32",
          "name": "",
          "type": "bytes32"
        }
      ],
      "stateMutability": "view",
      "type": "function"
    },
    {
      "inputs": [],
      "name": "COUNTING_MODE",
      "outputs": [
        {
          "internalType": "string",
          "name": "",
          "type": "string"
        }
      ],
      "stateMutability": "pure",
      "type": "function"
    },
    {
      "inputs": [],
      "name": "EXTENDED_BALLOT_TYPEHASH",
      "outputs": [
        {
          "internalType": "bytes32",
          "name": "",
          "type": "bytes32"
        }
      ],
      "stateMutability": "view",
      "type": "function"
    },
    {
      "inputs": [
        {
          "internalType": "uint256",
          "name": "proposalId",
          "type": "uint256"
        }
      ],
      "name": "cancel",
      "outputs": [],
      "stateMutability": "nonpayable",
      "type": "function"
    },
    {
      "inputs": [
        {
          "internalType": "uint256",
          "name": "proposalId",
          "type": "uint256"
        },
        {
          "internalType": "uint8",
          "name": "support",
          "type": "uint8"
        }
      ],
      "name": "castVote",
      "outputs": [
        {
          "internalType": "uint256",
          "name": "",
          "type": "uint256"
        }
      ],
      "stateMutability": "nonpayable",
      "type": "function"
    },
    {
      "inputs": [
        {
          "internalType": "uint256",
          "name": "proposalId",
          "type": "uint256"
        },
        {
          "internalType": "uint8",
          "name": "support",
          "type": "uint8"
        },
        {
          "internalType": "uint8",
          "name": "v",
          "type": "uint8"
        },
        {
          "internalType": "bytes32",
          "name": "r",
          "type": "bytes32"
        },
        {
          "internalType": "bytes32",
          "name": "s",
          "type": "bytes32"
        }
      ],
      "name": "castVoteBySig",
      "outputs": [
        {
          "internalType": "uint256",
          "name": "",
          "type": "uint256"
        }
      ],
      "stateMutability": "nonpayable",
      "type": "function"
    },
    {
      "inputs": [
        {
          "internalType": "uint256",
          "name": "proposalId",
          "type": "uint256"
        },
        {
          "internalType": "uint8",
          "name": "support",
          "type": "uint8"
        },
        {
          "internalType": "string",
          "name": "reason",
          "type": "string"
        }
      ],
      "name": "castVoteWithReason",
      "outputs": [
        {
          "internalType": "uint256",
          "name": "",
          "type": "uint256"
        }
      ],
      "stateMutability": "nonpayable",
      "type": "function"
    },
    {
      "inputs": [
        {
          "internalType": "uint256",
          "name": "proposalId",
          "type": "uint256"
        },
        {
          "internalType": "uint8",
          "name": "support",
          "type": "uint8"
        },
        {
          "internalType": "string",
          "name": "reason",
          "type": "string"
        },
        {
          "internalType": "bytes",
          "name": "params",
          "type": "bytes"
        }
      ],
      "name": "castVoteWithReasonAndParams",
      "outputs": [
        {
          "internalType": "uint256",
          "name": "",
          "type": "uint256"
        }
      ],
      "stateMutability": "nonpayable",
      "type": "function"
    },
    {
      "inputs": [
        {
          "internalType": "uint256",
          "name": "proposalId",
          "type": "uint256"
        },
        {
          "internalType": "uint8",
          "name": "support",
          "type": "uint8"
        },
        {
          "internalType": "string",
          "name": "reason",
          "type": "string"
        },
        {
          "internalType": "bytes",
          "name": "params",
          "type": "bytes"
        },
        {
          "internalType": "uint8",
          "name": "v",
          "type": "uint8"
        },
        {
          "internalType": "bytes32",
          "name": "r",
          "type": "bytes32"
        },
        {
          "internalType": "bytes32",
          "name": "s",
          "type": "bytes32"
        }
      ],
      "name": "castVoteWithReasonAndParamsBySig",
      "outputs": [
        {
          "internalType": "uint256",
          "name": "",
          "type": "uint256"
        }
      ],
      "stateMutability": "nonpayable",
      "type": "function"
    },
    {
      "inputs": [
        {
          "internalType": "address[]",
          "name": "targets",
          "type": "address[]"
        },
        {
          "internalType": "uint256[]",
          "name": "values",
          "type": "uint256[]"
        },
        {
          "internalType": "bytes[]",
          "name": "calldatas",
          "type": "bytes[]"
        },
        {
          "internalType": "bytes32",
          "name": "descriptionHash",
          "type": "bytes32"
        }
      ],
      "name": "execute",
      "outputs": [
        {
          "internalType": "uint256",
          "name": "",
          "type": "uint256"
        }
      ],
      "stateMutability": "payable",
      "type": "function"
    },
    {
      "inputs": [
        {
          "internalType": "uint256",
          "name": "proposalId",
          "type": "uint256"
        }
      ],
      "name": "execute",
      "outputs": [],
      "stateMutability": "payable",
      "type": "function"
    },
    {
      "inputs": [
        {
          "internalType": "uint256",
          "name": "proposalId",
          "type": "uint256"
        }
      ],
      "name": "getActions",
      "outputs": [
        {
          "internalType": "address[]",
          "name": "targets",
          "type": "address[]"
        },
        {
          "internalType": "uint256[]",
          "name": "values",
          "type": "uint256[]"
        },
        {
          "internalType": "string[]",
          "name": "signatures",
          "type": "string[]"
        },
        {
          "internalType": "bytes[]",
          "name": "calldatas",
          "type": "bytes[]"
        }
      ],
      "stateMutability": "view",
      "type": "function"
    },
    {
      "inputs": [
        {
          "internalType": "uint256",
          "name": "proposalId",
          "type": "uint256"
        },
        {
          "internalType": "address",
          "name": "voter",
          "type": "address"
        }
      ],
      "name": "getReceipt",
      "outputs": [
        {
          "components": [
            {
              "internalType": "bool",
              "name": "hasVoted",
              "type": "bool"
            },
            {
              "internalType": "uint8",
              "name": "support",
              "type": "uint8"
            },
            {
              "internalType": "uint96",
              "name": "votes",
              "type": "uint96"
            }
          ],
          "internalType": "struct IGovernorCompatibilityBravo.Receipt",
          "name": "",
          "type": "tuple"
        }
      ],
      "stateMutability": "view",
      "type": "function"
    },
    {
      "inputs": [
        {
          "internalType": "address",
          "name": "account",
          "type": "address"
        },
        {
          "internalType": "uint256",
          "name": "blockNumber",
          "type": "uint256"
        }
      ],
      "name": "getVotes",
      "outputs": [
        {
          "internalType": "uint256",
          "name": "",
          "type": "uint256"
        }
      ],
      "stateMutability": "view",
      "type": "function"
    },
    {
      "inputs": [
        {
          "internalType": "address",
          "name": "account",
          "type": "address"
        },
        {
          "internalType": "uint256",
          "name": "blockNumber",
          "type": "uint256"
        },
        {
          "internalType": "bytes",
          "name": "params",
          "type": "bytes"
        }
      ],
      "name": "getVotesWithParams",
      "outputs": [
        {
          "internalType": "uint256",
          "name": "",
          "type": "uint256"
        }
      ],
      "stateMutability": "view",
      "type": "function"
    },
    {
      "inputs": [
        {
          "internalType": "uint256",
          "name": "proposalId",
          "type": "uint256"
        },
        {
          "internalType": "address",
          "name": "account",
          "type": "address"
        }
      ],
      "name": "hasVoted",
      "outputs": [
        {
          "internalType": "bool",
          "name": "",
          "type": "bool"
        }
      ],
      "stateMutability": "view",
      "type": "function"
    },
    {
      "inputs": [
        {
          "internalType": "address[]",
          "name": "targets",
          "type": "address[]"
        },
        {
          "internalType": "uint256[]",
          "name": "values",
          "type": "uint256[]"
        },
        {
          "internalType": "bytes[]",
          "name": "calldatas",
          "type": "bytes[]"
        },
        {
          "internalType": "bytes32",
          "name": "descriptionHash",
          "type": "bytes32"
        }
      ],
      "name": "hashProposal",
      "outputs": [
        {
          "internalType": "uint256",
          "name": "",
          "type": "uint256"
        }
      ],
      "stateMutability": "pure",
      "type": "function"
    },
    {
      "inputs": [],
      "name": "name",
      "outputs": [
        {
          "internalType": "string",
          "name": "",
          "type": "string"
        }
      ],
      "stateMutability": "view",
      "type": "function"
    },
    {
      "inputs": [
        {
          "internalType": "address",
          "name": "",
          "type": "address"
        },
        {
          "internalType": "address",
          "name": "",
          "type": "address"
        },
        {
          "internalType": "uint256[]",
          "name": "",
          "type": "uint256[]"
        },
        {
          "internalType": "uint256[]",
          "name": "",
          "type": "uint256[]"
        },
        {
          "internalType": "bytes",
          "name": "",
          "type": "bytes"
        }
      ],
      "name": "onERC1155BatchReceived",
      "outputs": [
        {
          "internalType": "bytes4",
          "name": "",
          "type": "bytes4"
        }
      ],
      "stateMutability": "nonpayable",
      "type": "function"
    },
    {
      "inputs": [
        {
          "internalType": "address",
          "name": "",
          "type": "address"
        },
        {
          "internalType": "address",
          "name": "",
          "type": "address"
        },
        {
          "internalType": "uint256",
          "name": "",
          "type": "uint256"
        },
        {
          "internalType": "uint256",
          "name": "",
          "type": "uint256"
        },
        {
          "internalType": "bytes",
          "name": "",
          "type": "bytes"
        }
      ],
      "name": "onERC1155Received",
      "outputs": [
        {
          "internalType": "bytes4",
          "name": "",
          "type": "bytes4"
        }
      ],
      "stateMutability": "nonpayable",
      "type": "function"
    },
    {
      "inputs": [
        {
          "internalType": "address",
          "name": "",
          "type": "address"
        },
        {
          "internalType": "address",
          "name": "",
          "type": "address"
        },
        {
          "internalType": "uint256",
          "name": "",
          "type": "uint256"
        },
        {
          "internalType": "bytes",
          "name": "",
          "type": "bytes"
        }
      ],
      "name": "onERC721Received",
      "outputs": [
        {
          "internalType": "bytes4",
          "name": "",
          "type": "bytes4"
        }
      ],
      "stateMutability": "nonpayable",
      "type": "function"
    },
    {
      "inputs": [
        {
          "internalType": "uint256",
          "name": "proposalId",
          "type": "uint256"
        }
      ],
      "name": "proposalDeadline",
      "outputs": [
        {
          "internalType": "uint256",
          "name": "",
          "type": "uint256"
        }
      ],
      "stateMutability": "view",
      "type": "function"
    },
    {
      "inputs": [
        {
          "internalType": "uint256",
          "name": "proposalId",
          "type": "uint256"
        }
      ],
      "name": "proposalEta",
      "outputs": [
        {
          "internalType": "uint256",
          "name": "",
          "type": "uint256"
        }
      ],
      "stateMutability": "view",
      "type": "function"
    },
    {
      "inputs": [
        {
          "internalType": "uint256",
          "name": "proposalId",
          "type": "uint256"
        }
      ],
      "name": "proposalSnapshot",
      "outputs": [
        {
          "internalType": "uint256",
          "name": "",
          "type": "uint256"
        }
      ],
      "stateMutability": "view",
      "type": "function"
    },
    {
      "inputs": [],
      "name": "proposalThreshold",
      "outputs": [
        {
          "internalType": "uint256",
          "name": "",
          "type": "uint256"
        }
      ],
      "stateMutability": "view",
      "type": "function"
    },
    {
      "inputs": [
        {
          "internalType": "uint256",
          "name": "proposalId",
          "type": "uint256"
        }
      ],
      "name": "proposals",
      "outputs": [
        {
          "internalType": "uint256",
          "name": "id",
          "type": "uint256"
        },
        {
          "internalType": "address",
          "name": "proposer",
          "type": "address"
        },
        {
          "internalType": "uint256",
          "name": "eta",
          "type": "uint256"
        },
        {
          "internalType": "uint256",
          "name": "startBlock",
          "type": "uint256"
        },
        {
          "internalType": "uint256",
          "name": "endBlock",
          "type": "uint256"
        },
        {
          "internalType": "uint256",
          "name": "forVotes",
          "type": "uint256"
        },
        {
          "internalType": "uint256",
          "name": "againstVotes",
          "type": "uint256"
        },
        {
          "internalType": "uint256",
          "name": "abstainVotes",
          "type": "uint256"
        },
        {
          "internalType": "bool",
          "name": "canceled",
          "type": "bool"
        },
        {
          "internalType": "bool",
          "name": "executed",
          "type": "bool"
        }
      ],
      "stateMutability": "view",
      "type": "function"
    },
    {
      "inputs": [
        {
          "internalType": "address[]",
          "name": "targets",
          "type": "address[]"
        },
        {
          "internalType": "uint256[]",
          "name": "values",
          "type": "uint256[]"
        },
        {
          "internalType": "bytes[]",
          "name": "calldatas",
          "type": "bytes[]"
        },
        {
          "internalType": "string",
          "name": "description",
          "type": "string"
        }
      ],
      "name": "propose",
      "outputs": [
        {
          "internalType": "uint256",
          "name": "",
          "type": "uint256"
        }
      ],
      "stateMutability": "nonpayable",
      "type": "function"
    },
    {
      "inputs": [
        {
          "internalType": "address[]",
          "name": "targets",
          "type": "address[]"
        },
        {
          "internalType": "uint256[]",
          "name": "values",
          "type": "uint256[]"
        },
        {
          "internalType": "string[]",
          "name": "signatures",
          "type": "string[]"
        },
        {
          "internalType": "bytes[]",
          "name": "calldatas",
          "type": "bytes[]"
        },
        {
          "internalType": "string",
          "name": "description",
          "type": "string"
        }
      ],
      "name": "propose",
      "outputs": [
        {
          "internalType": "uint256",
          "name": "",
          "type": "uint256"
        }
      ],
      "stateMutability": "nonpayable",
      "type": "function"
    },
    {
      "inputs": [
        {
          "internalType": "address[]",
          "name": "targets",
          "type": "address[]"
        },
        {
          "internalType": "uint256[]",
          "name": "values",
          "type": "uint256[]"
        },
        {
          "internalType": "bytes[]",
          "name": "calldatas",
          "type": "bytes[]"
        },
        {
          "internalType": "bytes32",
          "name": "descriptionHash",
          "type": "bytes32"
        }
      ],
      "name": "queue",
      "outputs": [
        {
          "internalType": "uint256",
          "name": "",
          "type": "uint256"
        }
      ],
      "stateMutability": "nonpayable",
      "type": "function"
    },
    {
      "inputs": [
        {
          "internalType": "uint256",
          "name": "proposalId",
          "type": "uint256"
        }
      ],
      "name": "queue",
      "outputs": [],
      "stateMutability": "nonpayable",
      "type": "function"
    },
    {
      "inputs": [
        {
          "internalType": "uint256",
          "name": "blockNumber",
          "type": "uint256"
        }
      ],
      "name": "quorum",
      "outputs": [
        {
          "internalType": "uint256",
          "name": "",
          "type": "uint256"
        }
      ],
      "stateMutability": "view",
      "type": "function"
    },
    {
      "inputs": [],
      "name": "quorumDenominator",
      "outputs": [
        {
          "internalType": "uint256",
          "name": "",
          "type": "uint256"
        }
      ],
      "stateMutability": "view",
      "type": "function"
    },
    {
      "inputs": [
        {
          "internalType": "uint256",
          "name": "blockNumber",
          "type": "uint256"
        }
      ],
      "name": "quorumNumerator",
      "outputs": [
        {
          "internalType": "uint256",
          "name": "",
          "type": "uint256"
        }
      ],
      "stateMutability": "view",
      "type": "function"
    },
    {
      "inputs": [],
      "name": "quorumNumerator",
      "outputs": [
        {
          "internalType": "uint256",
          "name": "",
          "type": "uint256"
        }
      ],
      "stateMutability": "view",
      "type": "function"
    },
    {
      "inputs": [],
      "name": "quorumVotes",
      "outputs": [
        {
          "internalType": "uint256",
          "name": "",
          "type": "uint256"
        }
      ],
      "stateMutability": "view",
      "type": "function"
    },
    {
      "inputs": [
        {
          "internalType": "address",
          "name": "target",
          "type": "address"
        },
        {
          "internalType": "uint256",
          "name": "value",
          "type": "uint256"
        },
        {
          "internalType": "bytes",
          "name": "data",
          "type": "bytes"
        }
      ],
      "name": "relay",
      "outputs": [],
      "stateMutability": "payable",
      "type": "function"
    },
    {
      "inputs": [
        {
          "internalType": "uint256",
          "name": "newProposalThreshold",
          "type": "uint256"
        }
      ],
      "name": "setProposalThreshold",
      "outputs": [],
      "stateMutability": "nonpayable",
      "type": "function"
    },
    {
      "inputs": [
        {
          "internalType": "uint256",
          "name": "newVotingDelay",
          "type": "uint256"
        }
      ],
      "name": "setVotingDelay",
      "outputs": [],
      "stateMutability": "nonpayable",
      "type": "function"
    },
    {
      "inputs": [
        {
          "internalType": "uint256",
          "name": "newVotingPeriod",
          "type": "uint256"
        }
      ],
      "name": "setVotingPeriod",
      "outputs": [],
      "stateMutability": "nonpayable",
      "type": "function"
    },
    {
      "inputs": [
        {
          "internalType": "uint256",
          "name": "proposalId",
          "type": "uint256"
        }
      ],
      "name": "state",
      "outputs": [
        {
          "internalType": "enum IGovernor.ProposalState",
          "name": "",
          "type": "uint8"
        }
      ],
      "stateMutability": "view",
      "type": "function"
    },
    {
      "inputs": [
        {
          "internalType": "bytes4",
          "name": "interfaceId",
          "type": "bytes4"
        }
      ],
      "name": "supportsInterface",
      "outputs": [
        {
          "internalType": "bool",
          "name": "",
          "type": "bool"
        }
      ],
      "stateMutability": "view",
      "type": "function"
    },
    {
      "inputs": [],
      "name": "timelock",
      "outputs": [
        {
          "internalType": "address",
          "name": "",
          "type": "address"
        }
      ],
      "stateMutability": "view",
      "type": "function"
    },
    {
      "inputs": [],
      "name": "token",
      "outputs": [
        {
          "internalType": "contract IVotes",
          "name": "",
          "type": "address"
        }
      ],
      "stateMutability": "view",
      "type": "function"
    },
    {
      "inputs": [
        {
          "internalType": "uint256",
          "name": "newQuorumNumerator",
          "type": "uint256"
        }
      ],
      "name": "updateQuorumNumerator",
      "outputs": [],
      "stateMutability": "nonpayable",
      "type": "function"
    },
    {
      "inputs": [
        {
          "internalType": "contract TimelockController",
          "name": "newTimelock",
          "type": "address"
        }
      ],
      "name": "updateTimelock",
      "outputs": [],
      "stateMutability": "nonpayable",
      "type": "function"
    },
    {
      "inputs": [],
      "name": "version",
      "outputs": [
        {
          "internalType": "string",
          "name": "",
          "type": "string"
        }
      ],
      "stateMutability": "view",
      "type": "function"
    },
    {
      "inputs": [],
      "name": "votingDelay",
      "outputs": [
        {
          "internalType": "uint256",
          "name": "",
          "type": "uint256"
        }
      ],
      "stateMutability": "view",
      "type": "function"
    },
    {
      "inputs": [],
      "name": "votingPeriod",
      "outputs": [
        {
          "internalType": "uint256",
          "name": "",
          "type": "uint256"
        }
      ],
      "stateMutability": "view",
      "type": "function"
    },
    {
      "stateMutability": "payable",
      "type": "receive"
    }
  ],
  "transactionHash": "0x81041bcbd662dc22f0f9c5f9732370d38282c6515287b9db82ebf4cc56d64948",
  "args": [
    "0x333A2FA95Fbbe6447dAB5B680Ee7ccFE7C286188",
    "0xA8Aa6BBca26E4C6E90880Ac6beFfF47C2F39CcDA"
  ],
  "numDeployments": 1,
  "solcInputHash": "18c664ee478c0699f39c4853c41d33a9",
  "bytecode": "0x6101606040523480156200001257600080fd5b5060405162005b2038038062005b20833981016040819052620000359162000810565b8060048361a8c062049d4069152d02c7e14af68000006040518060400160405280600a815260200169476f7665726e616e636560b01b815250806200007f6200017060201b60201c565b815160209283012081519183019190912060e08290526101008190524660a0818152604080517f8b73c3c69bb8fe3d512ecc4cf759cc79239f7b179b0ffacaa9a75d522b39400f818801819052818301969096526060810194909452608080850193909352308483018190528151808603909301835260c0948501909152815191909501209052919091526101205260006200011c8282620008f4565b506200012a9050836200018b565b6200013582620001cc565b620001408162000273565b5050506001600160a01b0316610140526200015b81620002b4565b5062000167816200042c565b505050620009e8565b6040805180820190915260018152603160f81b602082015290565b60045460408051918252602082018390527fc565b045403dc03c2eea82b81a0465edad9e2e7fc4d97e11421c209da93d7a93910160405180910390a1600455565b60008111620002325760405162461bcd60e51b815260206004820152602760248201527f476f7665726e6f7253657474696e67733a20766f74696e6720706572696f6420604482015266746f6f206c6f7760c81b60648201526084015b60405180910390fd5b60055460408051918252602082018390527f7e3f7f0708a84de9203036abaa450dccc85ad5ff52f78c170f3edb55cf5e8828910160405180910390a1600555565b60065460408051918252602082018390527fccb45da8d5717e6c4544694297c4ba5cf151d455c9bb0ed4fc7a38411bc05461910160405180910390a1600655565b6064811115620003395760405162461bcd60e51b815260206004820152604360248201527f476f7665726e6f72566f74657351756f72756d4672616374696f6e3a2071756f60448201527f72756d4e756d657261746f72206f7665722071756f72756d44656e6f6d696e616064820152623a37b960e91b608482015260a40162000229565b60006200034562000495565b90508015801590620003575750600954155b15620003d25760096000016040518060400160405280600063ffffffff1681526020016200039084620004cd60201b620021e71760201c565b6001600160e01b0390811690915282546001810184556000938452602093849020835194909301519091166401000000000263ffffffff909316929092179101555b620003ed8260096200053c60201b620022541790919060201c565b505060408051828152602081018490527f0553476bf02ef2726e8ce5ced78d63e26e602e4a2257b1f559418e24b4633997910160405180910390a15050565b600a54604080516001600160a01b03928316815291831660208301527f08f74ea46ef7894f65eabfb5e6e695de773a000b47c529ab559178069b226401910160405180910390a1600a80546001600160a01b0319166001600160a01b0392909216919091179055565b60095460009015620004c657620004b860096200058f60201b6200228a1760201c565b6001600160e01b0316905090565b5060085490565b60006001600160e01b03821115620005385760405162461bcd60e51b815260206004820152602760248201527f53616665436173743a2076616c756520646f65736e27742066697420696e20326044820152663234206269747360c81b606482015260840162000229565b5090565b60008062000579846000016200055d43620005dd60201b620022c81760201c565b6200057386620004cd60201b620021e71760201c565b62000644565b6001600160e01b03918216969116945092505050565b80546000908015620005d357620005bb83620005ad600184620009c0565b600091825260209091200190565b5464010000000090046001600160e01b0316620005d6565b60005b9392505050565b600063ffffffff821115620005385760405162461bcd60e51b815260206004820152602660248201527f53616665436173743a2076616c756520646f65736e27742066697420696e203360448201526532206269747360d01b606482015260840162000229565b825460009081908015620007995760006200066687620005ad600185620009c0565b60408051808201909152905463ffffffff8082168084526401000000009092046001600160e01b031660208401529192509087161015620006ea5760405162461bcd60e51b815260206004820152601760248201527f436865636b706f696e743a20696e76616c6964206b6579000000000000000000604482015260640162000229565b805163ffffffff8088169116036200073857846200070f88620005ad600186620009c0565b80546001600160e01b03929092166401000000000263ffffffff90921691909117905562000788565b6040805180820190915263ffffffff80881682526001600160e01b0380881660208085019182528b54600181018d5560008d81529190912094519151909216640100000000029216919091179101555b602001519250839150620007ef9050565b50506040805180820190915263ffffffff80851682526001600160e01b0380851660208085019182528854600181018a5560008a8152918220955192519093166401000000000291909316179201919091559050815b935093915050565b6001600160a01b03811681146200080d57600080fd5b50565b600080604083850312156200082457600080fd5b82516200083181620007f7565b60208401519092506200084481620007f7565b809150509250929050565b634e487b7160e01b600052604160045260246000fd5b600181811c908216806200087a57607f821691505b6020821081036200089b57634e487b7160e01b600052602260045260246000fd5b50919050565b601f821115620008ef57600081815260208120601f850160051c81016020861015620008ca5750805b601f850160051c820191505b81811015620008eb57828155600101620008d6565b5050505b505050565b81516001600160401b038111156200091057620009106200084f565b620009288162000921845462000865565b84620008a1565b602080601f831160018114620009605760008415620009475750858301515b600019600386901b1c1916600185901b178555620008eb565b600085815260208120601f198616915b82811015620009915788860151825594840194600190910190840162000970565b5085821015620009b05787850151600019600388901b60f8161c191681555b5050505050600190811b01905550565b81810381811115620009e257634e487b7160e01b600052601160045260246000fd5b92915050565b60805160a05160c05160e0516101005161012051610140516150cf62000a5160003960008181610a4601528181612c070152612ed9015260006131f801526000613247015260006132220152600061317b015260006131a5015260006131cf01526150cf6000f3fe6080604052600436106102975760003560e01c80637d5e81e21161015a578063da95691a116100c1578063eb9019d41161007a578063eb9019d4146109a8578063ece40cc1146109c8578063f23a6e61146109e8578063f8ce560a14610a14578063fc0c546a14610a34578063fe0d94c114610a6857600080fd5b8063da95691a14610804578063dd4e2ba514610824578063ddf0b0091461086a578063deaaa7cc1461088a578063e23a9a52146108be578063ea0217cf1461098857600080fd5b8063b58131b011610113578063b58131b01461073e578063bc197c8114610753578063c01f9e371461077f578063c28bc2fa1461079f578063c59057e4146107b2578063d33219b4146107d257600080fd5b80637d5e81e21461069557806397c3d334146106b55780639a802a6d146106c9578063a7713a70146106e9578063a890c910146106fe578063ab58fb8e1461071e57600080fd5b8063328dd982116101fe57806354fd4d50116101b757806354fd4d50146105cb57806356781388146105f55780635f398a141461061557806360c4247f1461063557806370b0f660146106555780637b3c71d31461067557600080fd5b8063328dd982146104cf5780633932abb1146104ff5780633bccf4fd146105145780633e4f49e61461053457806340e58ee514610561578063438596321461058157600080fd5b8063150b7a0211610250578063150b7a02146103ef578063160cbed71461043357806324bc1a64146104535780632656227d146104685780632d63f6931461047b5780632fe3e2611461049b57600080fd5b8063013cf08b146102bf57806301ffc9a71461033a57806302a251a31461036a578063034201811461038d57806306f3f9e6146103ad57806306fdde03146103cd57600080fd5b366102ba57306102a5610a7b565b6001600160a01b0316146102b857600080fd5b005b600080fd5b3480156102cb57600080fd5b506102df6102da366004613fdf565b610a94565b604080519a8b526001600160a01b0390991660208b0152978901969096526060880194909452608087019290925260a086015260c085015260e084015215156101008301521515610120820152610140015b60405180910390f35b34801561034657600080fd5b5061035a610355366004613ff8565b610b3f565b6040519015158152602001610331565b34801561037657600080fd5b5061037f610b50565b604051908152602001610331565b34801561039957600080fd5b5061037f6103a836600461412e565b610b5b565b3480156103b957600080fd5b506102b86103c8366004613fdf565b610c53565b3480156103d957600080fd5b506103e2610ce6565b6040516103319190614224565b3480156103fb57600080fd5b5061041a61040a36600461424c565b630a85bd0160e11b949350505050565b6040516001600160e01b03199091168152602001610331565b34801561043f57600080fd5b5061037f61044e366004614428565b610d78565b34801561045f57600080fd5b5061037f610f79565b61037f610476366004614428565b610f89565b34801561048757600080fd5b5061037f610496366004613fdf565b611076565b3480156104a757600080fd5b5061037f7fb3b3f3b703cd84ce352197dcff232b1b5d3cfb2025ce47cf04742d0651f1af8881565b3480156104db57600080fd5b506104ef6104ea366004613fdf565b6110ad565b6040516103319493929190614580565b34801561050b57600080fd5b5061037f61133e565b34801561052057600080fd5b5061037f61052f3660046145cd565b611349565b34801561054057600080fd5b5061055461054f366004613fdf565b6113bf565b6040516103319190614631565b34801561056d57600080fd5b506102b861057c366004613fdf565b6113ca565b34801561058d57600080fd5b5061035a61059c366004614659565b60008281526007602090815260408083206001600160a01b038516845260080190915290205460ff1692915050565b3480156105d757600080fd5b506040805180820190915260018152603160f81b60208201526103e2565b34801561060157600080fd5b5061037f610610366004614689565b6116e2565b34801561062157600080fd5b5061037f6106303660046146b5565b61170b565b34801561064157600080fd5b5061037f610650366004613fdf565b611755565b34801561066157600080fd5b506102b8610670366004613fdf565b6117ec565b34801561068157600080fd5b5061037f610690366004614738565b611873565b3480156106a157600080fd5b5061037f6106b0366004614791565b6118c5565b3480156106c157600080fd5b50606461037f565b3480156106d557600080fd5b5061037f6106e4366004614831565b6118dc565b3480156106f557600080fd5b5061037f6118f3565b34801561070a57600080fd5b506102b8610719366004614889565b61191d565b34801561072a57600080fd5b5061037f610739366004613fdf565b6119a4565b34801561074a57600080fd5b5061037f611a3e565b34801561075f57600080fd5b5061041a61076e3660046148a6565b63bc197c8160e01b95945050505050565b34801561078b57600080fd5b5061037f61079a366004613fdf565b611a49565b6102b86107ad366004614939565b611a78565b3480156107be57600080fd5b5061037f6107cd366004614428565b611b87565b3480156107de57600080fd5b50600a546001600160a01b03165b6040516001600160a01b039091168152602001610331565b34801561081057600080fd5b5061037f61081f3660046149fb565b611bc1565b34801561083057600080fd5b5060408051808201909152601a81527f737570706f72743d627261766f2671756f72756d3d627261766f00000000000060208201526103e2565b34801561087657600080fd5b506102b8610885366004613fdf565b611be6565b34801561089657600080fd5b5061037f7f150214d74d59b7d1e90c73fc22ef3d991dd0a76b046543d4d80ab92d2a50328f81565b3480156108ca57600080fd5b506109586108d9366004614659565b60408051606081018252600080825260208201819052918101919091525060009182526007602090815260408084206001600160a01b0393909316845260089092018152918190208151606081018352905460ff8082161515835261010082041693820193909352620100009092046001600160601b03169082015290565b6040805182511515815260208084015160ff1690820152918101516001600160601b031690820152606001610331565b34801561099457600080fd5b506102b86109a3366004613fdf565b611e54565b3480156109b457600080fd5b5061037f6109c3366004614a9c565b611edb565b3480156109d457600080fd5b506102b86109e3366004613fdf565b611ee7565b3480156109f457600080fd5b5061041a610a03366004614ac8565b63f23a6e6160e01b95945050505050565b348015610a2057600080fd5b5061037f610a2f366004613fdf565b611f6e565b348015610a4057600080fd5b506107ec7f000000000000000000000000000000000000000000000000000000000000000081565b6102b8610a76366004613fdf565b611f79565b6000610a8f600a546001600160a01b031690565b905090565b8060008080808080808080610aa88a6119a4565b9750610ab38b611076565b9650610abe8b611a49565b60008c81526007602081905260408220805460058201546006830154938301546001600160a01b039092169e50949a50939850909650919450610b008d6113bf565b90506002816007811115610b1657610b1661461b565b1493506007816007811115610b2d57610b2d61461b565b14925050509193959799509193959799565b6000610b4a8261232d565b92915050565b6000610a8f60055490565b600080610bff610bf77fb3b3f3b703cd84ce352197dcff232b1b5d3cfb2025ce47cf04742d0651f1af888c8c8c8c604051610b97929190614b30565b60405180910390208b80519060200120604051602001610bdc959493929190948552602085019390935260ff9190911660408401526060830152608082015260a00190565b60405160208183030381529060405280519060200120612352565b8686866123a0565b9050610c458a828b8b8b8080601f0160208091040260200160405190810160405280939291908181526020018383808284376000920191909152508d92506123be915050565b9a9950505050505050505050565b610c5b610a7b565b6001600160a01b0316336001600160a01b031614610c945760405162461bcd60e51b8152600401610c8b90614b40565b60405180910390fd5b30610c9d610a7b565b6001600160a01b031614610cda5760008036604051610cbd929190614b30565b604051809103902090505b80610cd36002612523565b03610cc857505b610ce3816125a2565b50565b606060008054610cf590614b77565b80601f0160208091040260200160405190810160405280929190818152602001828054610d2190614b77565b8015610d6e5780601f10610d4357610100808354040283529160200191610d6e565b820191906000526020600020905b815481529060010190602001808311610d5157829003601f168201915b5050505050905090565b600080610d8786868686611b87565b90506004610d94826113bf565b6007811115610da557610da561461b565b14610dc25760405162461bcd60e51b8152600401610c8b90614bb1565b600a546040805163793d064960e11b815290516000926001600160a01b03169163f27a0c929160048083019260209291908290030181865afa158015610e0c573d6000803e3d6000fd5b505050506040513d601f19601f82011682018060405250810190610e309190614bf2565b600a5460405163b1c5f42760e01b81529192506001600160a01b03169063b1c5f42790610e6a908a908a908a906000908b90600401614c0b565b602060405180830381865afa158015610e87573d6000803e3d6000fd5b505050506040513d601f19601f82011682018060405250810190610eab9190614bf2565b6000838152600b602052604080822092909255600a5491516308f2a0bb60e41b81526001600160a01b0390921691638f2a0bb091610ef6918b918b918b91908b908990600401614c59565b600060405180830381600087803b158015610f1057600080fd5b505af1158015610f24573d6000803e3d6000fd5b505050507f9a2e42fd6722813d69113e7d0079d3d940171428df7373df9c7f7617cfda2892828242610f569190614cc7565b604080519283526020830191909152015b60405180910390a15095945050505050565b6000610a8f610a2f600143614cda565b600080610f9886868686611b87565b90506000610fa5826113bf565b90506004816007811115610fbb57610fbb61461b565b1480610fd857506005816007811115610fd657610fd661461b565b145b610ff45760405162461bcd60e51b8152600401610c8b90614bb1565b600082815260016020818152604092839020600201805460ff191690921790915590518381527f712ae1383f79ac853f8d882153778e0260ef8f03b504e2866e0593e04d2b291f910160405180910390a161105282888888886126ee565b61105f8288888888612790565b61106c828888888861279d565b5095945050505050565b60008181526001602090815260408083208151928301909152546001600160401b0316908190525b6001600160401b031692915050565b6060806060806000600760008781526020019081526020016000209050806001018160020182600301836004018380548060200260200160405190810160405280929190818152602001828054801561112f57602002820191906000526020600020905b81546001600160a01b03168152600190910190602001808311611111575b505050505093508280548060200260200160405190810160405280929190818152602001828054801561118157602002820191906000526020600020905b81548152602001906001019080831161116d575b5050505050925081805480602002602001604051908101604052809291908181526020016000905b828210156112555783829060005260206000200180546111c890614b77565b80601f01602080910402602001604051908101604052809291908181526020018280546111f490614b77565b80156112415780601f1061121657610100808354040283529160200191611241565b820191906000526020600020905b81548152906001019060200180831161122457829003601f168201915b5050505050815260200190600101906111a9565b50505050915080805480602002602001604051908101604052809291908181526020016000905b8282101561132857838290600052602060002001805461129b90614b77565b80601f01602080910402602001604051908101604052809291908181526020018280546112c790614b77565b80156113145780601f106112e957610100808354040283529160200191611314565b820191906000526020600020905b8154815290600101906020018083116112f757829003601f168201915b50505050508152602001906001019061127c565b5050505090509450945094509450509193509193565b6000610a8f60045490565b604080517f150214d74d59b7d1e90c73fc22ef3d991dd0a76b046543d4d80ab92d2a50328f602082015290810186905260ff85166060820152600090819061139790610bf790608001610bdc565b90506113b4878288604051806020016040528060008152506127d6565b979650505050505050565b6000610b4a826127f9565b600081815260076020526040902080546001600160a01b0316336001600160a01b0316148061141857506113fc611a3e565b8154611416906001600160a01b03166109c3600143614cda565b105b6114745760405162461bcd60e51b815260206004820152602760248201527f476f7665726e6f72427261766f3a2070726f706f7365722061626f76652074686044820152661c995cda1bdb1960ca1b6064820152608401610c8b565b6116dd816001018054806020026020016040519081016040528092919081815260200182805480156114cf57602002820191906000526020600020905b81546001600160a01b031681526001909101906020018083116114b1575b50505050508260020180548060200260200160405190810160405280929190818152602001828054801561152257602002820191906000526020600020905b81548152602001906001019080831161150e575b50505050506116d384600301805480602002602001604051908101604052809291908181526020016000905b828210156115fa57838290600052602060002001805461156d90614b77565b80601f016020809104026020016040519081016040528092919081815260200182805461159990614b77565b80156115e65780601f106115bb576101008083540402835291602001916115e6565b820191906000526020600020905b8154815290600101906020018083116115c957829003601f168201915b50505050508152602001906001019061154e565b50505060048701805460408051602080840282018101909252828152935060009084015b828210156116ca57838290600052602060002001805461163d90614b77565b80601f016020809104026020016040519081016040528092919081815260200182805461166990614b77565b80156116b65780601f1061168b576101008083540402835291602001916116b6565b820191906000526020600020905b81548152906001019060200180831161169957829003601f168201915b50505050508152602001906001019061161e565b50505050612943565b8460090154612a75565b505050565b600080339050611703848285604051806020016040528060008152506127d6565b949350505050565b6000803390506113b487828888888080601f0160208091040260200160405190810160405280939291908181526020018383808284376000920191909152508a92506123be915050565b60095460009080820361176c575050600854919050565b6000600961177b600184614cda565b8154811061178b5761178b614ced565b60009182526020918290206040805180820190915291015463ffffffff8116808352600160201b9091046001600160e01b031692820192909252915084106117e157602001516001600160e01b03169392505050565b611703600985612a83565b6117f4610a7b565b6001600160a01b0316336001600160a01b0316146118245760405162461bcd60e51b8152600401610c8b90614b40565b3061182d610a7b565b6001600160a01b03161461186a576000803660405161184d929190614b30565b604051809103902090505b806118636002612523565b0361185857505b610ce381612b35565b6000803390506118bb86828787878080601f0160208091040260200160405190810160405280939291908181526020018383808284376000920191909152506127d692505050565b9695505050505050565b60006118d385858585612b76565b95945050505050565b60006118e9848484612bde565b90505b9392505050565b6009546000901561191657611908600961228a565b6001600160e01b0316905090565b5060085490565b611925610a7b565b6001600160a01b0316336001600160a01b0316146119555760405162461bcd60e51b8152600401610c8b90614b40565b3061195e610a7b565b6001600160a01b03161461199b576000803660405161197e929190614b30565b604051809103902090505b806119946002612523565b0361198957505b610ce381612c74565b600a546000828152600b602052604080822054905163d45c443560e01b81526004810191909152909182916001600160a01b039091169063d45c443590602401602060405180830381865afa158015611a01573d6000803e3d6000fd5b505050506040513d601f19601f82011682018060405250810190611a259190614bf2565b905080600114611a3557806118ec565b60009392505050565b6000610a8f60065490565b60008181526001602081815260408084208151928301909152909101546001600160401b03169081905261109e565b611a80610a7b565b6001600160a01b0316336001600160a01b031614611ab05760405162461bcd60e51b8152600401610c8b90614b40565b30611ab9610a7b565b6001600160a01b031614611af65760008036604051611ad9929190614b30565b604051809103902090505b80611aef6002612523565b03611ae457505b600080856001600160a01b0316858585604051611b14929190614b30565b60006040518083038185875af1925050503d8060008114611b51576040519150601f19603f3d011682016040523d82523d6000602084013e611b56565b606091505b5091509150611b7e828260405180606001604052806028815260200161507260289139612cdd565b50505050505050565b600084848484604051602001611ba09493929190614d03565b60408051601f19818403018152919052805160209091012095945050505050565b6000611bd1338787878787612cf6565b6118bb8686611be08787612943565b856118c5565b60008181526007602090815260409182902060018101805484518185028101850190955280855291936116dd93909290830182828015611c4f57602002820191906000526020600020905b81546001600160a01b03168152600190910190602001808311611c31575b505050505082600201805480602002602001604051908101604052809291908181526020018280548015611ca257602002820191906000526020600020905b815481526020019060010190808311611c8e575b5050505050611e4a84600301805480602002602001604051908101604052809291908181526020016000905b82821015611d7a578382906000526020600020018054611ced90614b77565b80601f0160208091040260200160405190810160405280929190818152602001828054611d1990614b77565b8015611d665780601f10611d3b57610100808354040283529160200191611d66565b820191906000526020600020905b815481529060010190602001808311611d4957829003601f168201915b505050505081526020019060010190611cce565b50505060048701805460408051602080840282018101909252828152935060009084015b828210156116ca578382906000526020600020018054611dbd90614b77565b80601f0160208091040260200160405190810160405280929190818152602001828054611de990614b77565b8015611e365780601f10611e0b57610100808354040283529160200191611e36565b820191906000526020600020905b815481529060010190602001808311611e1957829003601f168201915b505050505081526020019060010190611d9e565b8460090154610d78565b611e5c610a7b565b6001600160a01b0316336001600160a01b031614611e8c5760405162461bcd60e51b8152600401610c8b90614b40565b30611e95610a7b565b6001600160a01b031614611ed25760008036604051611eb5929190614b30565b604051809103902090505b80611ecb6002612523565b03611ec057505b610ce381612db3565b60006118ec8383612e54565b611eef610a7b565b6001600160a01b0316336001600160a01b031614611f1f5760405162461bcd60e51b8152600401610c8b90614b40565b30611f28610a7b565b6001600160a01b031614611f655760008036604051611f48929190614b30565b604051809103902090505b80611f5e6002612523565b03611f5357505b610ce381612e75565b6000610b4a82612eb6565b60008181526007602090815260409182902060018101805484518185028101850190955280855291936116dd93909290830182828015611fe257602002820191906000526020600020905b81546001600160a01b03168152600190910190602001808311611fc4575b50505050508260020180548060200260200160405190810160405280929190818152602001828054801561203557602002820191906000526020600020905b815481526020019060010190808311612021575b50505050506121dd84600301805480602002602001604051908101604052809291908181526020016000905b8282101561210d57838290600052602060002001805461208090614b77565b80601f01602080910402602001604051908101604052809291908181526020018280546120ac90614b77565b80156120f95780601f106120ce576101008083540402835291602001916120f9565b820191906000526020600020905b8154815290600101906020018083116120dc57829003601f168201915b505050505081526020019060010190612061565b50505060048701805460408051602080840282018101909252828152935060009084015b828210156116ca57838290600052602060002001805461215090614b77565b80601f016020809104026020016040519081016040528092919081815260200182805461217c90614b77565b80156121c95780601f1061219e576101008083540402835291602001916121c9565b820191906000526020600020905b8154815290600101906020018083116121ac57829003601f168201915b505050505081526020019060010190612131565b8460090154610f89565b60006001600160e01b038211156122505760405162461bcd60e51b815260206004820152602760248201527f53616665436173743a2076616c756520646f65736e27742066697420696e20326044820152663234206269747360c81b6064820152608401610c8b565b5090565b60008061227284612264436122c8565b61226d866121e7565b612f60565b6001600160e01b0391821693501690505b9250929050565b80546000908015611a35576122b2836122a4600184614cda565b600091825260209091200190565b54600160201b90046001600160e01b03166118ec565b600063ffffffff8211156122505760405162461bcd60e51b815260206004820152602660248201527f53616665436173743a2076616c756520646f65736e27742066697420696e203360448201526532206269747360d01b6064820152608401610c8b565b60006001600160e01b03198216636e665ced60e01b1480610b4a5750610b4a82613103565b6000610b4a61235f61316e565b8360405161190160f01b6020820152602281018390526042810182905260009060620160405160208183030381529060405280519060200120905092915050565b60008060006123b187878787613295565b9150915061106c81613359565b60008581526001602081905260408220906123d8886113bf565b60078111156123e9576123e961461b565b146124425760405162461bcd60e51b815260206004820152602360248201527f476f7665726e6f723a20766f7465206e6f742063757272656e746c792061637460448201526269766560e81b6064820152608401610c8b565b604080516020810190915281546001600160401b03169081905260009061246b90889086612bde565b905061247a88888884886134a3565b83516000036124cf57866001600160a01b03167fb8e138887d0aa13bab447e82de9d5c1777041ecd21ca36ba824ff1e6c07ddda4898884896040516124c29493929190614d4e565b60405180910390a26113b4565b866001600160a01b03167fe2babfbac5889a709b63bb7f598b324e08bc5a4fb9ec647fb3cbc9ec07eb87128988848989604051612510959493929190614d76565b60405180910390a2979650505050505050565b600061253e8254600f81810b600160801b909204900b131590565b1561255c57604051631ed9509560e11b815260040160405180910390fd5b508054600f0b6000818152600180840160205260408220805492905583546fffffffffffffffffffffffffffffffff191692016001600160801b03169190911790915590565b60648111156126255760405162461bcd60e51b815260206004820152604360248201527f476f7665726e6f72566f74657351756f72756d4672616374696f6e3a2071756f60448201527f72756d4e756d657261746f72206f7665722071756f72756d44656e6f6d696e616064820152623a37b960e91b608482015260a401610c8b565b600061262f6118f3565b905080158015906126405750600954155b156126a457604080518082019091526000815260099060208101612663846121e7565b6001600160e01b039081169091528254600181018455600093845260209384902083519490930151909116600160201b0263ffffffff909316929092179101555b6126af600983612254565b505060408051828152602081018490527f0553476bf02ef2726e8ce5ced78d63e26e602e4a2257b1f559418e24b4633997910160405180910390a15050565b306126f7610a7b565b6001600160a01b0316146127895760005b845181101561278757306001600160a01b031685828151811061272d5761272d614ced565b60200260200101516001600160a01b0316036127775761277783828151811061275857612758614ced565b602002602001015180519060200120600261364090919063ffffffff16565b61278081614dbc565b9050612708565b505b5050505050565b612789858585858561367c565b306127a6610a7b565b6001600160a01b03161461278957600254600f81810b600160801b909204900b1315612789576000600255612789565b60006118d3858585856127f460408051602081019091526000815290565b6123be565b600080612805836136f0565b9050600481600781111561281b5761281b61461b565b146128265792915050565b6000838152600b602052604090205480612841575092915050565b600a54604051632ab0f52960e01b8152600481018390526001600160a01b0390911690632ab0f52990602401602060405180830381865afa15801561288a573d6000803e3d6000fd5b505050506040513d601f19601f820116820180604052508101906128ae9190614dd5565b156128bd575060079392505050565b600a54604051632c258a9f60e11b8152600481018390526001600160a01b039091169063584b153e90602401602060405180830381865afa158015612906573d6000803e3d6000fd5b505050506040513d601f19601f8201168201806040525081019061292a9190614dd5565b15612939575060059392505050565b5060029392505050565b6060600082516001600160401b0381111561296057612960614079565b60405190808252806020026020018201604052801561299357816020015b606081526020019060019003908161297e5790505b50905060005b8451811015612a6d578481815181106129b4576129b4614ced565b602002602001015151600014612a24578481815181106129d6576129d6614ced565b6020026020010151805190602001208482815181106129f7576129f7614ced565b6020026020010151604051602001612a10929190614df7565b604051602081830303815290604052612a3f565b838181518110612a3657612a36614ced565b60200260200101515b828281518110612a5157612a51614ced565b602002602001018190525080612a6690614dbc565b9050612999565b509392505050565b60006118d385858585613802565b6000438210612ad45760405162461bcd60e51b815260206004820181905260248201527f436865636b706f696e74733a20626c6f636b206e6f7420796574206d696e65646044820152606401610c8b565b6000612adf836122c8565b84549091506000612af2868483856138b4565b90508015612b1f57612b09866122a4600184614cda565b54600160201b90046001600160e01b0316612b22565b60005b6001600160e01b03169695505050505050565b60045460408051918252602082018390527fc565b045403dc03c2eea82b81a0465edad9e2e7fc4d97e11421c209da93d7a93910160405180910390a1600455565b6000612bd233868686516001600160401b03811115612b9757612b97614079565b604051908082528060200260200182016040528015612bca57816020015b6060815260200190600190039081612bb55790505b508787612cf6565b6118d38585858561390a565b604051630748d63560e31b81526001600160a01b038481166004830152602482018490526000917f000000000000000000000000000000000000000000000000000000000000000090911690633a46b1a890604401602060405180830381865afa158015612c50573d6000803e3d6000fd5b505050506040513d601f19601f820116820180604052508101906118e99190614bf2565b600a54604080516001600160a01b03928316815291831660208301527f08f74ea46ef7894f65eabfb5e6e695de773a000b47c529ab559178069b226401910160405180910390a1600a80546001600160a01b0319166001600160a01b0392909216919091179055565b60608315612cec5750816118ec565b6118ec8383613bcd565b805160208201206000612d148787612d0e8888612943565b85611b87565b6000818152600760205260409020600981015491925090612da85780546001600160a01b0319166001600160a01b038a161781558751612d5d90600183019060208b0190613e16565b508651612d7390600283019060208a0190613e77565b508551612d899060038301906020890190613eb2565b508451612d9f9060048301906020880190613f04565b50600981018390555b505050505050505050565b60008111612e135760405162461bcd60e51b815260206004820152602760248201527f476f7665726e6f7253657474696e67733a20766f74696e6720706572696f6420604482015266746f6f206c6f7760c81b6064820152608401610c8b565b60055460408051918252602082018390527f7e3f7f0708a84de9203036abaa450dccc85ad5ff52f78c170f3edb55cf5e8828910160405180910390a1600555565b60006118ec8383612e7060408051602081019091526000815290565b612bde565b60065460408051918252602082018390527fccb45da8d5717e6c4544694297c4ba5cf151d455c9bb0ed4fc7a38411bc05461910160405180910390a1600655565b60006064612ec383611755565b604051632394e7a360e21b8152600481018590527f00000000000000000000000000000000000000000000000000000000000000006001600160a01b031690638e539e8c90602401602060405180830381865afa158015612f28573d6000803e3d6000fd5b505050506040513d601f19601f82011682018060405250810190612f4c9190614bf2565b612f569190614e28565b610b4a9190614e3f565b8254600090819080156130a6576000612f7e876122a4600185614cda565b60408051808201909152905463ffffffff808216808452600160201b9092046001600160e01b031660208401529192509087161015612fff5760405162461bcd60e51b815260206004820152601760248201527f436865636b706f696e743a20696e76616c6964206b65790000000000000000006044820152606401610c8b565b805163ffffffff8088169116036130475784613020886122a4600186614cda565b80546001600160e01b0392909216600160201b0263ffffffff909216919091179055613096565b6040805180820190915263ffffffff80881682526001600160e01b0380881660208085019182528b54600181018d5560008d81529190912094519151909216600160201b029216919091179101555b6020015192508391506130fb9050565b50506040805180820190915263ffffffff80851682526001600160e01b0380851660208085019182528854600181018a5560008a815291822095519251909316600160201b0291909316179201919091559050815b935093915050565b60006001600160e01b0319821663bf26d89760e01b148061313457506001600160e01b031982166379dd796f60e01b145b8061314f57506001600160e01b03198216630271189760e51b145b80610b4a57506301ffc9a760e01b6001600160e01b0319831614610b4a565b6000306001600160a01b037f0000000000000000000000000000000000000000000000000000000000000000161480156131c757507f000000000000000000000000000000000000000000000000000000000000000046145b156131f157507f000000000000000000000000000000000000000000000000000000000000000090565b50604080517f00000000000000000000000000000000000000000000000000000000000000006020808301919091527f0000000000000000000000000000000000000000000000000000000000000000828401527f000000000000000000000000000000000000000000000000000000000000000060608301524660808301523060a0808401919091528351808403909101815260c0909201909252805191012090565b6000807f7fffffffffffffffffffffffffffffff5d576e7357a4501ddfe92f46681b20a08311156132cc5750600090506003613350565b6040805160008082526020820180845289905260ff881692820192909252606081018690526080810185905260019060a0016020604051602081039080840390855afa158015613320573d6000803e3d6000fd5b5050604051601f1901519150506001600160a01b03811661334957600060019250925050613350565b9150600090505b94509492505050565b600081600481111561336d5761336d61461b565b036133755750565b60018160048111156133895761338961461b565b036133d65760405162461bcd60e51b815260206004820152601860248201527f45434453413a20696e76616c6964207369676e617475726500000000000000006044820152606401610c8b565b60028160048111156133ea576133ea61461b565b036134375760405162461bcd60e51b815260206004820152601f60248201527f45434453413a20696e76616c6964207369676e6174757265206c656e677468006044820152606401610c8b565b600381600481111561344b5761344b61461b565b03610ce35760405162461bcd60e51b815260206004820152602260248201527f45434453413a20696e76616c6964207369676e6174757265202773272076616c604482015261756560f01b6064820152608401610c8b565b60008581526007602090815260408083206001600160a01b038816845260088101909252909120805460ff16156135325760405162461bcd60e51b815260206004820152602d60248201527f476f7665726e6f72436f6d7061746962696c697479427261766f3a20766f746560448201526c08185b1c9958591e4818d85cdd609a1b6064820152608401610c8b565b805460ff86166101000261ffff1990911617600117815561355284613bf7565b81546001600160601b039190911662010000026dffffffffffffffffffffffff00001990911617815560ff85166135a257838260060160008282546135979190614cc7565b90915550611b7e9050565b60001960ff8616016135c257838260050160008282546135979190614cc7565b60011960ff8616016135e257838260070160008282546135979190614cc7565b60405162461bcd60e51b815260206004820152602d60248201527f476f7665726e6f72436f6d7061746962696c697479427261766f3a20696e766160448201526c6c696420766f7465207479706560981b6064820152608401610c8b565b8154600160801b90819004600f0b6000818152600180860160205260409091209390935583546001600160801b03908116939091011602179055565b600a5460405163e38335e560e01b81526001600160a01b039091169063e38335e59034906136b7908890889088906000908990600401614c0b565b6000604051808303818588803b1580156136d057600080fd5b505af11580156136e4573d6000803e3d6000fd5b50505050505050505050565b6000818152600160205260408120600281015460ff16156137145750600792915050565b6002810154610100900460ff161561372f5750600292915050565b600061373a84611076565b90508060000361378c5760405162461bcd60e51b815260206004820152601d60248201527f476f7665726e6f723a20756e6b6e6f776e2070726f706f73616c2069640000006044820152606401610c8b565b43811061379d575060009392505050565b60006137a885611a49565b90504381106137bc57506001949350505050565b6137c585613c5f565b80156137e7575060008581526007602052604090206006810154600590910154115b156137f757506004949350505050565b506003949350505050565b60008061381186868686613c87565b6000818152600b6020526040902054909150156118d357600a546000828152600b60205260409081902054905163c4d252f560e01b81526001600160a01b039092169163c4d252f59161386a9160040190815260200190565b600060405180830381600087803b15801561388457600080fd5b505af1158015613898573d6000803e3d6000fd5b5050506000828152600b60205260408120555095945050505050565b60005b81831015612a6d5760006138cb8484613d93565b60008781526020902090915063ffffffff86169082015463ffffffff1611156138f657809250613904565b613901816001614cc7565b93505b506138b7565b6000613914611a3e565b613923336109c3600143614cda565b101561398b5760405162461bcd60e51b815260206004820152603160248201527f476f7665726e6f723a2070726f706f73657220766f7465732062656c6f7720706044820152701c9bdc1bdcd85b081d1a1c995cda1bdb19607a1b6064820152608401610c8b565b60006139a08686868680519060200120611b87565b905084518651146139c35760405162461bcd60e51b8152600401610c8b90614e61565b83518651146139e45760405162461bcd60e51b8152600401610c8b90614e61565b6000865111613a355760405162461bcd60e51b815260206004820152601860248201527f476f7665726e6f723a20656d7074792070726f706f73616c00000000000000006044820152606401610c8b565b600081815260016020908152604091829020825191820190925281546001600160401b03169081905215613ab55760405162461bcd60e51b815260206004820152602160248201527f476f7665726e6f723a2070726f706f73616c20616c72656164792065786973746044820152607360f81b6064820152608401610c8b565b6000613ac7613ac261133e565b613dae565b613ad043613dae565b613ada9190614ea2565b90506000613ae9613ac2610b50565b613af39083614ea2565b835467ffffffffffffffff19166001600160401b038416178455905060018301805467ffffffffffffffff19166001600160401b0383161790557f7d84a6263ae0d98d3329bd7b46bb4e8d6f98cd35a7adb45c274c8b7fd5ebd5e084338b8b8d516001600160401b03811115613b6b57613b6b614079565b604051908082528060200260200182016040528015613b9e57816020015b6060815260200190600190039081613b895790505b508c88888e604051613bb899989796959493929190614ec9565b60405180910390a15091979650505050505050565b815115613bdd5781518083602001fd5b8060405162461bcd60e51b8152600401610c8b9190614224565b60006001600160601b038211156122505760405162461bcd60e51b815260206004820152602660248201527f53616665436173743a2076616c756520646f65736e27742066697420696e203960448201526536206269747360d01b6064820152608401610c8b565b60008181526007602052604081206005810154613c7e610a2f85611076565b11159392505050565b600080613c9686868686611b87565b90506000613ca3826113bf565b90506002816007811115613cb957613cb961461b565b14158015613cd957506006816007811115613cd657613cd661461b565b14155b8015613cf757506007816007811115613cf457613cf461461b565b14155b613d435760405162461bcd60e51b815260206004820152601d60248201527f476f7665726e6f723a2070726f706f73616c206e6f74206163746976650000006044820152606401610c8b565b60008281526001602052604090819020600201805461ff001916610100179055517f789cf55be980739dad1d0699b93b58e806b51c9d96619bfa8fe0a28abaa7b30c90610f679084815260200190565b6000613da26002848418614e3f565b6118ec90848416614cc7565b60006001600160401b038211156122505760405162461bcd60e51b815260206004820152602660248201527f53616665436173743a2076616c756520646f65736e27742066697420696e203660448201526534206269747360d01b6064820152608401610c8b565b828054828255906000526020600020908101928215613e6b579160200282015b82811115613e6b57825182546001600160a01b0319166001600160a01b03909116178255602090920191600190910190613e36565b50612250929150613f56565b828054828255906000526020600020908101928215613e6b579160200282015b82811115613e6b578251825591602001919060010190613e97565b828054828255906000526020600020908101928215613ef8579160200282015b82811115613ef85782518290613ee89082614fb2565b5091602001919060010190613ed2565b50612250929150613f6b565b828054828255906000526020600020908101928215613f4a579160200282015b82811115613f4a5782518290613f3a9082614fb2565b5091602001919060010190613f24565b50612250929150613f88565b5b808211156122505760008155600101613f57565b80821115612250576000613f7f8282613fa5565b50600101613f6b565b80821115612250576000613f9c8282613fa5565b50600101613f88565b508054613fb190614b77565b6000825580601f10613fc1575050565b601f016020900490600052602060002090810190610ce39190613f56565b600060208284031215613ff157600080fd5b5035919050565b60006020828403121561400a57600080fd5b81356001600160e01b0319811681146118ec57600080fd5b803560ff8116811461403357600080fd5b919050565b60008083601f84011261404a57600080fd5b5081356001600160401b0381111561406157600080fd5b60208301915083602082850101111561228357600080fd5b634e487b7160e01b600052604160045260246000fd5b604051601f8201601f191681016001600160401b03811182821017156140b7576140b7614079565b604052919050565b600082601f8301126140d057600080fd5b81356001600160401b038111156140e9576140e9614079565b6140fc601f8201601f191660200161408f565b81815284602083860101111561411157600080fd5b816020850160208301376000918101602001919091529392505050565b60008060008060008060008060e0898b03121561414a57600080fd5b8835975061415a60208a01614022565b965060408901356001600160401b038082111561417657600080fd5b6141828c838d01614038565b909850965060608b013591508082111561419b57600080fd5b506141a88b828c016140bf565b9450506141b760808a01614022565b925060a0890135915060c089013590509295985092959890939650565b60005b838110156141ef5781810151838201526020016141d7565b50506000910152565b600081518084526142108160208601602086016141d4565b601f01601f19169290920160200192915050565b6020815260006118ec60208301846141f8565b6001600160a01b0381168114610ce357600080fd5b6000806000806080858703121561426257600080fd5b843561426d81614237565b9350602085013561427d81614237565b92506040850135915060608501356001600160401b0381111561429f57600080fd5b6142ab878288016140bf565b91505092959194509250565b60006001600160401b038211156142d0576142d0614079565b5060051b60200190565b600082601f8301126142eb57600080fd5b813560206143006142fb836142b7565b61408f565b82815260059290921b8401810191818101908684111561431f57600080fd5b8286015b8481101561434357803561433681614237565b8352918301918301614323565b509695505050505050565b600082601f83011261435f57600080fd5b8135602061436f6142fb836142b7565b82815260059290921b8401810191818101908684111561438e57600080fd5b8286015b848110156143435780358352918301918301614392565b600082601f8301126143ba57600080fd5b813560206143ca6142fb836142b7565b82815260059290921b840181019181810190868411156143e957600080fd5b8286015b848110156143435780356001600160401b0381111561440c5760008081fd5b61441a8986838b01016140bf565b8452509183019183016143ed565b6000806000806080858703121561443e57600080fd5b84356001600160401b038082111561445557600080fd5b614461888389016142da565b9550602087013591508082111561447757600080fd5b6144838883890161434e565b9450604087013591508082111561449957600080fd5b506144a6878288016143a9565b949793965093946060013593505050565b600081518084526020808501945080840160005b838110156144f05781516001600160a01b0316875295820195908201906001016144cb565b509495945050505050565b600081518084526020808501945080840160005b838110156144f05781518752958201959082019060010161450f565b600081518084526020808501808196508360051b8101915082860160005b858110156145735782840389526145618483516141f8565b98850198935090840190600101614549565b5091979650505050505050565b60808152600061459360808301876144b7565b82810360208401526145a581876144fb565b905082810360408401526145b9818661452b565b905082810360608401526113b4818561452b565b600080600080600060a086880312156145e557600080fd5b853594506145f560208701614022565b935061460360408701614022565b94979396509394606081013594506080013592915050565b634e487b7160e01b600052602160045260246000fd5b602081016008831061465357634e487b7160e01b600052602160045260246000fd5b91905290565b6000806040838503121561466c57600080fd5b82359150602083013561467e81614237565b809150509250929050565b6000806040838503121561469c57600080fd5b823591506146ac60208401614022565b90509250929050565b6000806000806000608086880312156146cd57600080fd5b853594506146dd60208701614022565b935060408601356001600160401b03808211156146f957600080fd5b61470589838a01614038565b9095509350606088013591508082111561471e57600080fd5b5061472b888289016140bf565b9150509295509295909350565b6000806000806060858703121561474e57600080fd5b8435935061475e60208601614022565b925060408501356001600160401b0381111561477957600080fd5b61478587828801614038565b95989497509550505050565b600080600080608085870312156147a757600080fd5b84356001600160401b03808211156147be57600080fd5b6147ca888389016142da565b955060208701359150808211156147e057600080fd5b6147ec8883890161434e565b9450604087013591508082111561480257600080fd5b61480e888389016143a9565b9350606087013591508082111561482457600080fd5b506142ab878288016140bf565b60008060006060848603121561484657600080fd5b833561485181614237565b92506020840135915060408401356001600160401b0381111561487357600080fd5b61487f868287016140bf565b9150509250925092565b60006020828403121561489b57600080fd5b81356118ec81614237565b600080600080600060a086880312156148be57600080fd5b85356148c981614237565b945060208601356148d981614237565b935060408601356001600160401b03808211156148f557600080fd5b61490189838a0161434e565b9450606088013591508082111561491757600080fd5b61492389838a0161434e565b9350608088013591508082111561471e57600080fd5b6000806000806060858703121561494f57600080fd5b843561495a81614237565b93506020850135925060408501356001600160401b0381111561477957600080fd5b600082601f83011261498d57600080fd5b8135602061499d6142fb836142b7565b82815260059290921b840181019181810190868411156149bc57600080fd5b8286015b848110156143435780356001600160401b038111156149df5760008081fd5b6149ed8986838b01016140bf565b8452509183019183016149c0565b600080600080600060a08688031215614a1357600080fd5b85356001600160401b0380821115614a2a57600080fd5b614a3689838a016142da565b96506020880135915080821115614a4c57600080fd5b614a5889838a0161434e565b95506040880135915080821115614a6e57600080fd5b614a7a89838a0161497c565b94506060880135915080821115614a9057600080fd5b61492389838a016143a9565b60008060408385031215614aaf57600080fd5b8235614aba81614237565b946020939093013593505050565b600080600080600060a08688031215614ae057600080fd5b8535614aeb81614237565b94506020860135614afb81614237565b9350604086013592506060860135915060808601356001600160401b03811115614b2457600080fd5b61472b888289016140bf565b8183823760009101908152919050565b60208082526018908201527f476f7665726e6f723a206f6e6c79476f7665726e616e63650000000000000000604082015260600190565b600181811c90821680614b8b57607f821691505b602082108103614bab57634e487b7160e01b600052602260045260246000fd5b50919050565b60208082526021908201527f476f7665726e6f723a2070726f706f73616c206e6f74207375636365737366756040820152601b60fa1b606082015260800190565b600060208284031215614c0457600080fd5b5051919050565b60a081526000614c1e60a08301886144b7565b8281036020840152614c3081886144fb565b90508281036040840152614c44818761452b565b60608401959095525050608001529392505050565b60c081526000614c6c60c08301896144b7565b8281036020840152614c7e81896144fb565b90508281036040840152614c92818861452b565b60608401969096525050608081019290925260a0909101529392505050565b634e487b7160e01b600052601160045260246000fd5b80820180821115610b4a57610b4a614cb1565b81810381811115610b4a57610b4a614cb1565b634e487b7160e01b600052603260045260246000fd5b608081526000614d1660808301876144b7565b8281036020840152614d2881876144fb565b90508281036040840152614d3c818661452b565b91505082606083015295945050505050565b84815260ff841660208201528260408201526080606082015260006118bb60808301846141f8565b85815260ff8516602082015283604082015260a060608201526000614d9e60a08301856141f8565b8281036080840152614db081856141f8565b98975050505050505050565b600060018201614dce57614dce614cb1565b5060010190565b600060208284031215614de757600080fd5b815180151581146118ec57600080fd5b6001600160e01b0319831681528151600090614e1a8160048501602087016141d4565b919091016004019392505050565b8082028115828204841417610b4a57610b4a614cb1565b600082614e5c57634e487b7160e01b600052601260045260246000fd5b500490565b60208082526021908201527f476f7665726e6f723a20696e76616c69642070726f706f73616c206c656e67746040820152600d60fb1b606082015260800190565b6001600160401b03818116838216019080821115614ec257614ec2614cb1565b5092915050565b8981526001600160a01b038916602082015261012060408201819052600090614ef48382018b6144b7565b90508281036060840152614f08818a6144fb565b90508281036080840152614f1c818961452b565b905082810360a0840152614f30818861452b565b6001600160401b0387811660c0860152861660e08501528381036101008501529050614f5c81856141f8565b9c9b505050505050505050505050565b601f8211156116dd57600081815260208120601f850160051c81016020861015614f935750805b601f850160051c820191505b8181101561278757828155600101614f9f565b81516001600160401b03811115614fcb57614fcb614079565b614fdf81614fd98454614b77565b84614f6c565b602080601f8311600181146150145760008415614ffc5750858301515b600019600386901b1c1916600185901b178555612787565b600085815260208120601f198616915b8281101561504357888601518255948401946001909101908401615024565b50858210156150615787850151600019600388901b60f8161c191681555b5050505050600190811b0190555056fe476f7665726e6f723a2072656c617920726576657274656420776974686f7574206d657373616765a264697066735822122075a1a3d024c4c04f58e9d8bcd4bdcd7ac7b0ed3a964dc14e85708c19469b659364736f6c63430008110033",
  "devdoc": {
    "errors": {
      "Empty()": [
        {
          "details": "An operation (e.g. {front}) couldn't be completed due to the queue being empty."
        }
      ]
    },
    "kind": "dev",
    "methods": {
      "COUNTING_MODE()": {
        "details": "A description of the possible `support` values for {castVote} and the way these votes are counted, meant to be consumed by UIs to show correct vote options and interpret the results. The string is a URL-encoded sequence of key-value pairs that each describe one aspect, for example `support=bravo&quorum=for,abstain`. There are 2 standard keys: `support` and `quorum`. - `support=bravo` refers to the vote options 0 = Against, 1 = For, 2 = Abstain, as in `GovernorBravo`. - `quorum=bravo` means that only For votes are counted towards quorum. - `quorum=for,abstain` means that both For and Abstain votes are counted towards quorum. If a counting module makes use of encoded `params`, it should  include this under a `params` key with a unique name that describes the behavior. For example: - `params=fractional` might refer to a scheme where votes are divided fractionally between for/against/abstain. - `params=erc721` might refer to a scheme where specific NFTs are delegated to vote. NOTE: The string can be decoded by the standard https://developer.mozilla.org/en-US/docs/Web/API/URLSearchParams[`URLSearchParams`] JavaScript class."
      },
      "cancel(uint256)": {
        "details": "Cancels a proposal only if sender is the proposer, or proposer delegates dropped below proposal threshold."
      },
      "castVote(uint256,uint8)": {
        "details": "See {IGovernor-castVote}."
      },
      "castVoteBySig(uint256,uint8,uint8,bytes32,bytes32)": {
        "details": "See {IGovernor-castVoteBySig}."
      },
      "castVoteWithReason(uint256,uint8,string)": {
        "details": "See {IGovernor-castVoteWithReason}."
      },
      "castVoteWithReasonAndParams(uint256,uint8,string,bytes)": {
        "details": "See {IGovernor-castVoteWithReasonAndParams}."
      },
      "castVoteWithReasonAndParamsBySig(uint256,uint8,string,bytes,uint8,bytes32,bytes32)": {
        "details": "See {IGovernor-castVoteWithReasonAndParamsBySig}."
      },
      "execute(address[],uint256[],bytes[],bytes32)": {
        "details": "See {IGovernor-execute}."
      },
      "execute(uint256)": {
        "details": "See {IGovernorCompatibilityBravo-execute}."
      },
      "getActions(uint256)": {
        "details": "See {IGovernorCompatibilityBravo-getActions}."
      },
      "getReceipt(uint256,address)": {
        "details": "See {IGovernorCompatibilityBravo-getReceipt}."
      },
      "getVotesWithParams(address,uint256,bytes)": {
        "details": "See {IGovernor-getVotesWithParams}."
      },
      "hasVoted(uint256,address)": {
        "details": "See {IGovernor-hasVoted}."
      },
      "hashProposal(address[],uint256[],bytes[],bytes32)": {
        "details": "See {IGovernor-hashProposal}. The proposal id is produced by hashing the ABI encoded `targets` array, the `values` array, the `calldatas` array and the descriptionHash (bytes32 which itself is the keccak256 hash of the description string). This proposal id can be produced from the proposal data which is part of the {ProposalCreated} event. It can even be computed in advance, before the proposal is submitted. Note that the chainId and the governor address are not part of the proposal id computation. Consequently, the same proposal (with same operation and same description) will have the same id if submitted on multiple governors across multiple networks. This also means that in order to execute the same operation twice (on the same governor) the proposer will have to change the description in order to avoid proposal id conflicts."
      },
      "name()": {
        "details": "See {IGovernor-name}."
      },
      "onERC1155BatchReceived(address,address,uint256[],uint256[],bytes)": {
        "details": "See {IERC1155Receiver-onERC1155BatchReceived}."
      },
      "onERC1155Received(address,address,uint256,uint256,bytes)": {
        "details": "See {IERC1155Receiver-onERC1155Received}."
      },
      "onERC721Received(address,address,uint256,bytes)": {
        "details": "See {IERC721Receiver-onERC721Received}."
      },
      "proposalDeadline(uint256)": {
        "details": "See {IGovernor-proposalDeadline}."
      },
      "proposalEta(uint256)": {
        "details": "Public accessor to check the eta of a queued proposal"
      },
      "proposalSnapshot(uint256)": {
        "details": "See {IGovernor-proposalSnapshot}."
      },
      "proposals(uint256)": {
        "details": "See {IGovernorCompatibilityBravo-proposals}."
      },
      "propose(address[],uint256[],string[],bytes[],string)": {
        "details": "See {IGovernorCompatibilityBravo-propose}."
      },
      "queue(address[],uint256[],bytes[],bytes32)": {
        "details": "Function to queue a proposal to the timelock."
      },
      "queue(uint256)": {
        "details": "See {IGovernorCompatibilityBravo-queue}."
      },
      "quorumDenominator()": {
        "details": "Returns the quorum denominator. Defaults to 100, but may be overridden."
      },
      "quorumNumerator()": {
        "details": "Returns the current quorum numerator. See {quorumDenominator}."
      },
      "quorumNumerator(uint256)": {
        "details": "Returns the quorum numerator at a specific block number. See {quorumDenominator}."
      },
      "quorumVotes()": {
        "details": "See {IGovernorCompatibilityBravo-quorumVotes}."
      },
      "relay(address,uint256,bytes)": {
        "details": "Relays a transaction or function call to an arbitrary target. In cases where the governance executor is some contract other than the governor itself, like when using a timelock, this function can be invoked in a governance proposal to recover tokens or Ether that was sent to the governor contract by mistake. Note that if the executor is simply the governor itself, use of `relay` is redundant."
      },
      "setProposalThreshold(uint256)": {
        "details": "Update the proposal threshold. This operation can only be performed through a governance proposal. Emits a {ProposalThresholdSet} event."
      },
      "setVotingDelay(uint256)": {
        "details": "Update the voting delay. This operation can only be performed through a governance proposal. Emits a {VotingDelaySet} event."
      },
      "setVotingPeriod(uint256)": {
        "details": "Update the voting period. This operation can only be performed through a governance proposal. Emits a {VotingPeriodSet} event."
      },
      "timelock()": {
        "details": "Public accessor to check the address of the timelock"
      },
      "updateQuorumNumerator(uint256)": {
        "details": "Changes the quorum numerator. Emits a {QuorumNumeratorUpdated} event. Requirements: - Must be called through a governance proposal. - New numerator must be smaller or equal to the denominator."
      },
      "updateTimelock(address)": {
        "details": "Public endpoint to update the underlying timelock instance. Restricted to the timelock itself, so updates must be proposed, scheduled, and executed through governance proposals. CAUTION: It is not recommended to change the timelock while there are other queued governance proposals."
      },
      "version()": {
        "details": "See {IGovernor-version}."
      }
    },
    "version": 1
  },
  "userdoc": {
    "kind": "user",
    "methods": {
      "COUNTING_MODE()": {
        "notice": "module:voting"
      }
    },
    "version": 1
  },
  "storageLayout": {
    "storage": [
      {
        "astId": 448,
        "contract": "contracts/Governance.sol:Governance",
        "label": "_name",
        "offset": 0,
        "slot": "0",
        "type": "t_string_storage"
      },
      {
        "astId": 453,
        "contract": "contracts/Governance.sol:Governance",
        "label": "_proposals",
        "offset": 0,
        "slot": "1",
        "type": "t_mapping(t_uint256,t_struct(ProposalCore)446_storage)"
      },
      {
        "astId": 456,
        "contract": "contracts/Governance.sol:Governance",
        "label": "_governanceCall",
        "offset": 0,
        "slot": "2",
        "type": "t_struct(Bytes32Deque)11564_storage"
      },
      {
        "astId": 3840,
        "contract": "contracts/Governance.sol:Governance",
        "label": "_votingDelay",
        "offset": 0,
        "slot": "4",
        "type": "t_uint256"
      },
      {
        "astId": 3842,
        "contract": "contracts/Governance.sol:Governance",
        "label": "_votingPeriod",
        "offset": 0,
        "slot": "5",
        "type": "t_uint256"
      },
      {
        "astId": 3844,
        "contract": "contracts/Governance.sol:Governance",
        "label": "_proposalThreshold",
        "offset": 0,
        "slot": "6",
        "type": "t_uint256"
      },
      {
        "astId": 2957,
        "contract": "contracts/Governance.sol:Governance",
        "label": "_proposalDetails",
        "offset": 0,
        "slot": "7",
        "type": "t_mapping(t_uint256,t_struct(ProposalDetails)2952_storage)"
      },
      {
        "astId": 4443,
        "contract": "contracts/Governance.sol:Governance",
        "label": "_quorumNumerator",
        "offset": 0,
        "slot": "8",
        "type": "t_uint256"
      },
      {
        "astId": 4446,
        "contract": "contracts/Governance.sol:Governance",
        "label": "_quorumNumeratorHistory",
        "offset": 0,
        "slot": "9",
        "type": "t_struct(History)6745_storage"
      },
      {
        "astId": 4023,
        "contract": "contracts/Governance.sol:Governance",
        "label": "_timelock",
        "offset": 0,
        "slot": "10",
        "type": "t_contract(TimelockController)2907"
      },
      {
        "astId": 4027,
        "contract": "contracts/Governance.sol:Governance",
        "label": "_timelockIds",
        "offset": 0,
        "slot": "11",
        "type": "t_mapping(t_uint256,t_bytes32)"
      }
    ],
    "types": {
      "t_address": {
        "encoding": "inplace",
        "label": "address",
        "numberOfBytes": "20"
      },
      "t_array(t_address)dyn_storage": {
        "base": "t_address",
        "encoding": "dynamic_array",
        "label": "address[]",
        "numberOfBytes": "32"
      },
      "t_array(t_bytes_storage)dyn_storage": {
        "base": "t_bytes_storage",
        "encoding": "dynamic_array",
        "label": "bytes[]",
        "numberOfBytes": "32"
      },
      "t_array(t_string_storage)dyn_storage": {
        "base": "t_string_storage",
        "encoding": "dynamic_array",
        "label": "string[]",
        "numberOfBytes": "32"
      },
      "t_array(t_struct(Checkpoint)6750_storage)dyn_storage": {
        "base": "t_struct(Checkpoint)6750_storage",
        "encoding": "dynamic_array",
        "label": "struct Checkpoints.Checkpoint[]",
        "numberOfBytes": "32"
      },
      "t_array(t_uint256)dyn_storage": {
        "base": "t_uint256",
        "encoding": "dynamic_array",
        "label": "uint256[]",
        "numberOfBytes": "32"
      },
      "t_bool": {
        "encoding": "inplace",
        "label": "bool",
        "numberOfBytes": "1"
      },
      "t_bytes32": {
        "encoding": "inplace",
        "label": "bytes32",
        "numberOfBytes": "32"
      },
      "t_bytes_storage": {
        "encoding": "bytes",
        "label": "bytes",
        "numberOfBytes": "32"
      },
      "t_contract(TimelockController)2907": {
        "encoding": "inplace",
        "label": "contract TimelockController",
        "numberOfBytes": "20"
      },
      "t_int128": {
        "encoding": "inplace",
        "label": "int128",
        "numberOfBytes": "16"
      },
      "t_mapping(t_address,t_struct(Receipt)3732_storage)": {
        "encoding": "mapping",
        "key": "t_address",
        "label": "mapping(address => struct IGovernorCompatibilityBravo.Receipt)",
        "numberOfBytes": "32",
        "value": "t_struct(Receipt)3732_storage"
      },
      "t_mapping(t_int128,t_bytes32)": {
        "encoding": "mapping",
        "key": "t_int128",
        "label": "mapping(int128 => bytes32)",
        "numberOfBytes": "32",
        "value": "t_bytes32"
      },
      "t_mapping(t_uint256,t_bytes32)": {
        "encoding": "mapping",
        "key": "t_uint256",
        "label": "mapping(uint256 => bytes32)",
        "numberOfBytes": "32",
        "value": "t_bytes32"
      },
      "t_mapping(t_uint256,t_struct(ProposalCore)446_storage)": {
        "encoding": "mapping",
        "key": "t_uint256",
        "label": "mapping(uint256 => struct Governor.ProposalCore)",
        "numberOfBytes": "32",
        "value": "t_struct(ProposalCore)446_storage"
      },
      "t_mapping(t_uint256,t_struct(ProposalDetails)2952_storage)": {
        "encoding": "mapping",
        "key": "t_uint256",
        "label": "mapping(uint256 => struct GovernorCompatibilityBravo.ProposalDetails)",
        "numberOfBytes": "32",
        "value": "t_struct(ProposalDetails)2952_storage"
      },
      "t_string_storage": {
        "encoding": "bytes",
        "label": "string",
        "numberOfBytes": "32"
      },
      "t_struct(BlockNumber)8485_storage": {
        "encoding": "inplace",
        "label": "struct Timers.BlockNumber",
        "members": [
          {
            "astId": 8484,
            "contract": "contracts/Governance.sol:Governance",
            "label": "_deadline",
            "offset": 0,
            "slot": "0",
            "type": "t_uint64"
          }
        ],
        "numberOfBytes": "32"
      },
      "t_struct(Bytes32Deque)11564_storage": {
        "encoding": "inplace",
        "label": "struct DoubleEndedQueue.Bytes32Deque",
        "members": [
          {
            "astId": 11557,
            "contract": "contracts/Governance.sol:Governance",
            "label": "_begin",
            "offset": 0,
            "slot": "0",
            "type": "t_int128"
          },
          {
            "astId": 11559,
            "contract": "contracts/Governance.sol:Governance",
            "label": "_end",
            "offset": 16,
            "slot": "0",
            "type": "t_int128"
          },
          {
            "astId": 11563,
            "contract": "contracts/Governance.sol:Governance",
            "label": "_data",
            "offset": 0,
            "slot": "1",
            "type": "t_mapping(t_int128,t_bytes32)"
          }
        ],
        "numberOfBytes": "64"
      },
      "t_struct(Checkpoint)6750_storage": {
        "encoding": "inplace",
        "label": "struct Checkpoints.Checkpoint",
        "members": [
          {
            "astId": 6747,
            "contract": "contracts/Governance.sol:Governance",
            "label": "_blockNumber",
            "offset": 0,
            "slot": "0",
            "type": "t_uint32"
          },
          {
            "astId": 6749,
            "contract": "contracts/Governance.sol:Governance",
            "label": "_value",
            "offset": 4,
            "slot": "0",
            "type": "t_uint224"
          }
        ],
        "numberOfBytes": "32"
      },
      "t_struct(History)6745_storage": {
        "encoding": "inplace",
        "label": "struct Checkpoints.History",
        "members": [
          {
            "astId": 6744,
            "contract": "contracts/Governance.sol:Governance",
            "label": "_checkpoints",
            "offset": 0,
            "slot": "0",
            "type": "t_array(t_struct(Checkpoint)6750_storage)dyn_storage"
          }
        ],
        "numberOfBytes": "32"
      },
      "t_struct(ProposalCore)446_storage": {
        "encoding": "inplace",
        "label": "struct Governor.ProposalCore",
        "members": [
          {
            "astId": 438,
            "contract": "contracts/Governance.sol:Governance",
            "label": "voteStart",
            "offset": 0,
            "slot": "0",
            "type": "t_struct(BlockNumber)8485_storage"
          },
          {
            "astId": 441,
            "contract": "contracts/Governance.sol:Governance",
            "label": "voteEnd",
            "offset": 0,
            "slot": "1",
            "type": "t_struct(BlockNumber)8485_storage"
          },
          {
            "astId": 443,
            "contract": "contracts/Governance.sol:Governance",
            "label": "executed",
            "offset": 0,
            "slot": "2",
            "type": "t_bool"
          },
          {
            "astId": 445,
            "contract": "contracts/Governance.sol:Governance",
            "label": "canceled",
            "offset": 1,
            "slot": "2",
            "type": "t_bool"
          }
        ],
        "numberOfBytes": "96"
      },
      "t_struct(ProposalDetails)2952_storage": {
        "encoding": "inplace",
        "label": "struct GovernorCompatibilityBravo.ProposalDetails",
        "members": [
          {
            "astId": 2926,
            "contract": "contracts/Governance.sol:Governance",
            "label": "proposer",
            "offset": 0,
            "slot": "0",
            "type": "t_address"
          },
          {
            "astId": 2929,
            "contract": "contracts/Governance.sol:Governance",
            "label": "targets",
            "offset": 0,
            "slot": "1",
            "type": "t_array(t_address)dyn_storage"
          },
          {
            "astId": 2932,
            "contract": "contracts/Governance.sol:Governance",
            "label": "values",
            "offset": 0,
            "slot": "2",
            "type": "t_array(t_uint256)dyn_storage"
          },
          {
            "astId": 2935,
            "contract": "contracts/Governance.sol:Governance",
            "label": "signatures",
            "offset": 0,
            "slot": "3",
            "type": "t_array(t_string_storage)dyn_storage"
          },
          {
            "astId": 2938,
            "contract": "contracts/Governance.sol:Governance",
            "label": "calldatas",
            "offset": 0,
            "slot": "4",
            "type": "t_array(t_bytes_storage)dyn_storage"
          },
          {
            "astId": 2940,
            "contract": "contracts/Governance.sol:Governance",
            "label": "forVotes",
            "offset": 0,
            "slot": "5",
            "type": "t_uint256"
          },
          {
            "astId": 2942,
            "contract": "contracts/Governance.sol:Governance",
            "label": "againstVotes",
            "offset": 0,
            "slot": "6",
            "type": "t_uint256"
          },
          {
            "astId": 2944,
            "contract": "contracts/Governance.sol:Governance",
            "label": "abstainVotes",
            "offset": 0,
            "slot": "7",
            "type": "t_uint256"
          },
          {
            "astId": 2949,
            "contract": "contracts/Governance.sol:Governance",
            "label": "receipts",
            "offset": 0,
            "slot": "8",
            "type": "t_mapping(t_address,t_struct(Receipt)3732_storage)"
          },
          {
            "astId": 2951,
            "contract": "contracts/Governance.sol:Governance",
            "label": "descriptionHash",
            "offset": 0,
            "slot": "9",
            "type": "t_bytes32"
          }
        ],
        "numberOfBytes": "320"
      },
      "t_struct(Receipt)3732_storage": {
        "encoding": "inplace",
        "label": "struct IGovernorCompatibilityBravo.Receipt",
        "members": [
          {
            "astId": 3727,
            "contract": "contracts/Governance.sol:Governance",
            "label": "hasVoted",
            "offset": 0,
            "slot": "0",
            "type": "t_bool"
          },
          {
            "astId": 3729,
            "contract": "contracts/Governance.sol:Governance",
            "label": "support",
            "offset": 1,
            "slot": "0",
            "type": "t_uint8"
          },
          {
            "astId": 3731,
            "contract": "contracts/Governance.sol:Governance",
            "label": "votes",
            "offset": 2,
            "slot": "0",
            "type": "t_uint96"
          }
        ],
        "numberOfBytes": "32"
      },
      "t_uint224": {
        "encoding": "inplace",
        "label": "uint224",
        "numberOfBytes": "28"
      },
      "t_uint256": {
        "encoding": "inplace",
        "label": "uint256",
        "numberOfBytes": "32"
      },
      "t_uint32": {
        "encoding": "inplace",
        "label": "uint32",
        "numberOfBytes": "4"
      },
      "t_uint64": {
        "encoding": "inplace",
        "label": "uint64",
        "numberOfBytes": "8"
      },
      "t_uint8": {
        "encoding": "inplace",
        "label": "uint8",
        "numberOfBytes": "1"
      },
      "t_uint96": {
        "encoding": "inplace",
        "label": "uint96",
        "numberOfBytes": "12"
      }
    }
  }
}